{
  "_format": "hh-sol-artifact-1",
  "contractName": "PokemonFactory",
  "sourceName": "contracts/PokemonFactory.sol",
  "abi": [
    {
      "anonymous": false,
      "inputs": [
        {
          "indexed": false,
          "internalType": "uint256",
          "name": "id",
          "type": "uint256"
        },
        {
          "indexed": false,
          "internalType": "string",
          "name": "name",
          "type": "string"
        },
        {
          "indexed": false,
          "internalType": "uint256",
          "name": "skillCount",
          "type": "uint256"
        }
      ],
      "name": "pokemonCreated",
      "type": "event"
    },
    {
      "inputs": [
        {
          "internalType": "string",
          "name": "_name",
          "type": "string"
        },
        {
          "internalType": "uint256",
          "name": "_id",
          "type": "uint256"
        },
        {
          "components": [
            {
              "internalType": "string",
              "name": "name",
              "type": "string"
            },
            {
              "internalType": "string",
              "name": "description",
              "type": "string"
            }
          ],
          "internalType": "struct PokemonFactory.Skill[]",
          "name": "_skills",
          "type": "tuple[]"
        },
        {
          "internalType": "enum PokemonFactory.PokemonType[]",
          "name": "_pokemonType",
          "type": "uint8[]"
        }
      ],
      "name": "createPokemon",
      "outputs": [],
      "stateMutability": "nonpayable",
      "type": "function"
    },
    {
      "inputs": [],
      "name": "getAllPokemons",
      "outputs": [
        {
          "components": [
            {
              "internalType": "uint256",
              "name": "id",
              "type": "uint256"
            },
            {
              "internalType": "string",
              "name": "name",
              "type": "string"
            },
            {
              "components": [
                {
                  "internalType": "string",
                  "name": "name",
                  "type": "string"
                },
                {
                  "internalType": "string",
                  "name": "description",
                  "type": "string"
                }
              ],
              "internalType": "struct PokemonFactory.Skill[]",
              "name": "skills",
              "type": "tuple[]"
            },
            {
              "internalType": "enum PokemonFactory.PokemonType[]",
              "name": "pokemonType",
              "type": "uint8[]"
            }
          ],
          "internalType": "struct PokemonFactory.Pokemon[]",
          "name": "",
          "type": "tuple[]"
        }
      ],
      "stateMutability": "view",
      "type": "function"
    },
    {
      "inputs": [
        {
          "internalType": "uint256",
          "name": "",
          "type": "uint256"
        }
      ],
      "name": "pokemonToOwner",
      "outputs": [
        {
          "internalType": "address",
          "name": "",
          "type": "address"
        }
      ],
      "stateMutability": "view",
      "type": "function"
    }
  ],
  "bytecode": "0x608060405234801561001057600080fd5b50611628806100206000396000f3fe608060405234801561001057600080fd5b50600436106100415760003560e01c80632f7467b3146100465780635e91679014610076578063cfbaa93e14610094575b600080fd5b610060600480360381019061005b91906108c3565b6100b0565b60405161006d9190610931565b60405180910390f35b61007e6100e3565b60405161008b9190610d53565b60405180910390f35b6100ae60048036038101906100a9919061110a565b6103ee565b005b60016020528060005260406000206000915054906101000a900473ffffffffffffffffffffffffffffffffffffffff1681565b60606000805480602002602001604051908101604052809291908181526020016000905b828210156103e5578382906000526020600020906004020160405180608001604052908160008201548152602001600182018054610144906111f4565b80601f0160208091040260200160405190810160405280929190818152602001828054610170906111f4565b80156101bd5780601f10610192576101008083540402835291602001916101bd565b820191906000526020600020905b8154815290600101906020018083116101a057829003601f168201915b5050505050815260200160028201805480602002602001604051908101604052809291908181526020016000905b82821015610341578382906000526020600020906002020160405180604001604052908160008201805461021e906111f4565b80601f016020809104026020016040519081016040528092919081815260200182805461024a906111f4565b80156102975780601f1061026c57610100808354040283529160200191610297565b820191906000526020600020905b81548152906001019060200180831161027a57829003601f168201915b505050505081526020016001820180546102b0906111f4565b80601f01602080910402602001604051908101604052809291908181526020018280546102dc906111f4565b80156103295780601f106102fe57610100808354040283529160200191610329565b820191906000526020600020905b81548152906001019060200180831161030c57829003601f168201915b505050505081525050815260200190600101906101eb565b505050508152602001600382018054806020026020016040519081016040528092919081815260200182805480156103cd57602002820191906000526020600020906000905b82829054906101000a900460ff1660108111156103a7576103a6610b52565b5b815260200190600101906020826000010492830192600103820291508084116103875790505b50505050508152505081526020019060010190610107565b50505050905090565b6000600260003373ffffffffffffffffffffffffffffffffffffffff1673ffffffffffffffffffffffffffffffffffffffff1681526020019081526020016000205414610470576040517f08c379a000000000000000000000000000000000000000000000000000000000815260040161046790611283565b60405180910390fd5b600083116104b3576040517f08c379a00000000000000000000000000000000000000000000000000000000081526004016104aa906112ef565b60405180910390fd5b60028451116104f7576040517f08c379a00000000000000000000000000000000000000000000000000000000081526004016104ee90611381565b60405180910390fd5b600082511161053b576040517f08c379a000000000000000000000000000000000000000000000000000000000815260040161053290611413565b60405180910390fd5b600081511161057f576040517f08c379a0000000000000000000000000000000000000000000000000000000008152600401610576906114a5565b60405180910390fd5b6000808481548110610594576105936114c5565b5b90600052602060002090600402019050838160000181905550848160010190805190602001906105c59291906107d6565b5060005b8351811015610661578381815181106105e5576105e46114c5565b5b6020026020010151826002018281548110610603576106026114c5565b5b9060005260206000209060020201600082015181600001908051906020019061062d9291906107d6565b50602082015181600101908051906020019061064a9291906107d6565b50905050808061065990611523565b9150506105c9565b5060005b82518110156106eb57828181518110610681576106806114c5565b5b602002602001015182600301828154811061069f5761069e6114c5565b5b90600052602060002090602091828204019190066101000a81548160ff021916908360108111156106d3576106d2610b52565b5b021790555080806106e390611523565b915050610665565b50336001600086815260200190815260200160002060006101000a81548173ffffffffffffffffffffffffffffffffffffffff021916908373ffffffffffffffffffffffffffffffffffffffff160217905550600260003373ffffffffffffffffffffffffffffffffffffffff1673ffffffffffffffffffffffffffffffffffffffff168152602001908152602001600020600081548092919061078e90611523565b91905055507fb0333aa1d093150abeccd52d41b8f65f2dc464354bbaea5ea14e68bac879c8c8848685516040516107c7939291906115b4565b60405180910390a15050505050565b8280546107e2906111f4565b90600052602060002090601f016020900481019282610804576000855561084b565b82601f1061081d57805160ff191683800117855561084b565b8280016001018555821561084b579182015b8281111561084a57825182559160200191906001019061082f565b5b509050610858919061085c565b5090565b5b8082111561087557600081600090555060010161085d565b5090565b6000604051905090565b600080fd5b600080fd5b6000819050919050565b6108a08161088d565b81146108ab57600080fd5b50565b6000813590506108bd81610897565b92915050565b6000602082840312156108d9576108d8610883565b5b60006108e7848285016108ae565b91505092915050565b600073ffffffffffffffffffffffffffffffffffffffff82169050919050565b600061091b826108f0565b9050919050565b61092b81610910565b82525050565b60006020820190506109466000830184610922565b92915050565b600081519050919050565b600082825260208201905092915050565b6000819050602082019050919050565b6109818161088d565b82525050565b600081519050919050565b600082825260208201905092915050565b60005b838110156109c15780820151818401526020810190506109a6565b838111156109d0576000848401525b50505050565b6000601f19601f8301169050919050565b60006109f282610987565b6109fc8185610992565b9350610a0c8185602086016109a3565b610a15816109d6565b840191505092915050565b600081519050919050565b600082825260208201905092915050565b6000819050602082019050919050565b60006040830160008301518482036000860152610a6982826109e7565b91505060208301518482036020860152610a8382826109e7565b9150508091505092915050565b6000610a9c8383610a4c565b905092915050565b6000602082019050919050565b6000610abc82610a20565b610ac68185610a2b565b935083602082028501610ad885610a3c565b8060005b85811015610b145784840389528151610af58582610a90565b9450610b0083610aa4565b925060208a01995050600181019050610adc565b50829750879550505050505092915050565b600081519050919050565b600082825260208201905092915050565b6000819050602082019050919050565b7f4e487b7100000000000000000000000000000000000000000000000000000000600052602160045260246000fd5b60118110610b9257610b91610b52565b5b50565b6000819050610ba382610b81565b919050565b6000610bb382610b95565b9050919050565b610bc381610ba8565b82525050565b6000610bd58383610bba565b60208301905092915050565b6000602082019050919050565b6000610bf982610b26565b610c038185610b31565b9350610c0e83610b42565b8060005b83811015610c3f578151610c268882610bc9565b9750610c3183610be1565b925050600181019050610c12565b5085935050505092915050565b6000608083016000830151610c646000860182610978565b5060208301518482036020860152610c7c82826109e7565b91505060408301518482036040860152610c968282610ab1565b91505060608301518482036060860152610cb08282610bee565b9150508091505092915050565b6000610cc98383610c4c565b905092915050565b6000602082019050919050565b6000610ce98261094c565b610cf38185610957565b935083602082028501610d0585610968565b8060005b85811015610d415784840389528151610d228582610cbd565b9450610d2d83610cd1565b925060208a01995050600181019050610d09565b50829750879550505050505092915050565b60006020820190508181036000830152610d6d8184610cde565b905092915050565b600080fd5b600080fd5b7f4e487b7100000000000000000000000000000000000000000000000000000000600052604160045260246000fd5b610db7826109d6565b810181811067ffffffffffffffff82111715610dd657610dd5610d7f565b5b80604052505050565b6000610de9610879565b9050610df58282610dae565b919050565b600067ffffffffffffffff821115610e1557610e14610d7f565b5b610e1e826109d6565b9050602081019050919050565b82818337600083830152505050565b6000610e4d610e4884610dfa565b610ddf565b905082815260208101848484011115610e6957610e68610d7a565b5b610e74848285610e2b565b509392505050565b600082601f830112610e9157610e90610d75565b5b8135610ea1848260208601610e3a565b91505092915050565b600067ffffffffffffffff821115610ec557610ec4610d7f565b5b602082029050602081019050919050565b600080fd5b600080fd5b600080fd5b600060408284031215610efb57610efa610edb565b5b610f056040610ddf565b9050600082013567ffffffffffffffff811115610f2557610f24610ee0565b5b610f3184828501610e7c565b600083015250602082013567ffffffffffffffff811115610f5557610f54610ee0565b5b610f6184828501610e7c565b60208301525092915050565b6000610f80610f7b84610eaa565b610ddf565b90508083825260208201905060208402830185811115610fa357610fa2610ed6565b5b835b81811015610fea57803567ffffffffffffffff811115610fc857610fc7610d75565b5b808601610fd58982610ee5565b85526020850194505050602081019050610fa5565b5050509392505050565b600082601f83011261100957611008610d75565b5b8135611019848260208601610f6d565b91505092915050565b600067ffffffffffffffff82111561103d5761103c610d7f565b5b602082029050602081019050919050565b6011811061105b57600080fd5b50565b60008135905061106d8161104e565b92915050565b600061108661108184611022565b610ddf565b905080838252602082019050602084028301858111156110a9576110a8610ed6565b5b835b818110156110d257806110be888261105e565b8452602084019350506020810190506110ab565b5050509392505050565b600082601f8301126110f1576110f0610d75565b5b8135611101848260208601611073565b91505092915050565b6000806000806080858703121561112457611123610883565b5b600085013567ffffffffffffffff81111561114257611141610888565b5b61114e87828801610e7c565b945050602061115f878288016108ae565b935050604085013567ffffffffffffffff8111156111805761117f610888565b5b61118c87828801610ff4565b925050606085013567ffffffffffffffff8111156111ad576111ac610888565b5b6111b9878288016110dc565b91505092959194509250565b7f4e487b7100000000000000000000000000000000000000000000000000000000600052602260045260246000fd5b6000600282049050600182168061120c57607f821691505b602082108114156112205761121f6111c5565b5b50919050565b600082825260208201905092915050565b7f596f7520616c72656164792068617665206120706f6b656d6f6e210000000000600082015250565b600061126d601b83611226565b915061127882611237565b602082019050919050565b6000602082019050818103600083015261129c81611260565b9050919050565b7f4964206d7573742062652067726561746572207468616e203000000000000000600082015250565b60006112d9601983611226565b91506112e4826112a3565b602082019050919050565b60006020820190508181036000830152611308816112cc565b9050919050565b7f4e616d65206d757374206265206174206c65617374203320636861726163746560008201527f7273206c6f6e6700000000000000000000000000000000000000000000000000602082015250565b600061136b602783611226565b91506113768261130f565b604082019050919050565b6000602082019050818103600083015261139a8161135e565b9050919050565b7f506f6b656d6f6e206d7573742068617665206174206c65617374203120736b6960008201527f6c6c000000000000000000000000000000000000000000000000000000000000602082015250565b60006113fd602283611226565b9150611408826113a1565b604082019050919050565b6000602082019050818103600083015261142c816113f0565b9050919050565b7f506f6b656d6f6e206d7573742068617665206174206c65617374203120706f6b60008201527f656d6f6e20747970650000000000000000000000000000000000000000000000602082015250565b600061148f602983611226565b915061149a82611433565b604082019050919050565b600060208201905081810360008301526114be81611482565b9050919050565b7f4e487b7100000000000000000000000000000000000000000000000000000000600052603260045260246000fd5b7f4e487b7100000000000000000000000000000000000000000000000000000000600052601160045260246000fd5b600061152e8261088d565b91507fffffffffffffffffffffffffffffffffffffffffffffffffffffffffffffffff821415611561576115606114f4565b5b600182019050919050565b6115758161088d565b82525050565b600061158682610987565b6115908185611226565b93506115a08185602086016109a3565b6115a9816109d6565b840191505092915050565b60006060820190506115c9600083018661156c565b81810360208301526115db818561157b565b90506115ea604083018461156c565b94935050505056fea26469706673582212201da73149e6791b626c96fc514e6d9118d2c84bb565a760e9b0335679bc09cb8664736f6c63430008090033",
  "linkReferences": {},
  "deployedLinkReferences": {}
}